:1000000014C1000043C1000041C100003FC1000015
:100010003DC100003BC1000039C1000037C10000F4
:1000200035C1000033C1000031C100002FC1000004
:100030002DC100002BC1000029C1000027C1000014
:1000400025C1000023C1000021C100001FC1000024
:100050001DC100001BC1000019C100000C94610A01
:1000600015C100000C9454090C942B090FC1000019
:100070000DC100000BC1000009C1000007C1000054
:1000800005C1000003C1000001C10000FFC0000065
:10009000FDC00000FBC00000F9C00000C6C50000A4
:1000A000F5C00000F3C00000F1C00000EFC0000088
:1000B000EDC00000EBC00000E9C00000E7C0000098
:1000C000E5C00000E3C00000E1C00000DFC00000A8
:1000D000DDC00000DBC00000D9C00000D7C00000B8
:1000E000D5C0000067086A0859085D086308A108C0
:1000F0006E08720878087C08800886088A088E08CE
:10010000A108940898089C080000220025002800F7
:100110002B002E003100340002010000050108010F
:100120000B01000020002300260029002C002F00D6
:1001300032000001000003010601090100000A0B62
:1001400002090C0D0E080703040100000000000066
:10015000000000000000000000000000000000009F
:10016000000000000000000012111000000000005C
:10017000000000000000000000000000000000007F
:10018000000000002100240027002A002D0030007C
:10019000330001010000040107010A0101021020DF
:1001A00020080810204010204080020102010804AD
:1001B0000201010204081020408080402010080441
:1001C000020180040201804020100804020108049A
:1001D00002010102040810204080010204081020DE
:1001E0004080050505050705080808080202020207
:1001F0000A0A0808040404040101010101010101C3
:100200000303030303030303040707070C0C0C0C8D
:100210000C0C0C0C02020202060606060606060676
:100220000B0B0B0B0B0B0B0BB11E11241FBECFEFD7
:10023000D1E2DEBFCDBF00E00CBF13E0A0E0B2E032
:10024000E8E9F2E400E00BBF02C007900D92AC3386
:10025000B107D9F729E0ACE3B3E001C01D92A732A2
:10026000B207E1F711E0C5E1D1E000E006C0219757
:100270000109802FFE010E943E21C431D10780E098
:100280000807A9F70E94F5150C944A21B9CECF931F
:10029000DF931F92CDB7DEB76983DC01ED91FC914E
:1002A0000280F381E02D41E050E0BE016F5F7F4F9F
:1002B00019950F90DF91CF910895DC01ED91FC919C
:1002C000068CF78DE02D199591E089270895862FEA
:1002D000089581E08627089585ED8093BC00809184
:1002E000BC0084FDFCCF1092D403089540917E039E
:1002F000262F30E0240F311D21323105DCF420910E
:10030000D4032430C9F4FC0180E090E0861758F44F
:1003100030917E032191DC01A45ABC4FA30FB11D83
:100320002C930196F3CF80917E03680F60937E0338
:1003300080E0089581E0089582E008950895E091B5
:10034000D6038091D503E81730F4F0E0E952FC4F72
:10035000808190E008958FEF9FEF08959091D603EC
:100360008091D503981750F4E92FF0E0E952FC4F43
:10037000208130E09F5F9093D60302C02FEF3FEFC4
:10038000C90108958091D50390E02091D603821B86
:1003900091090895CF92DF92EF92FF920F931F93EE
:1003A000CF93DF937C01262F972F8A018091250917
:1003B000882391F0C62FD72F6E01C40ED51ECC1501
:1003C000DD0569F06991D701ED91FC910190F08113
:1003D000E02DC7011995F3CF642F822F87DFC80165
:1003E000DF91CF911F910F91FF90EF90DF90CF9011
:1003F0000895CF93DF931F92CDB7DEB76983209125
:1004000025092223D1F020912309203240F021E058
:1004100030E0FC013383228380E090E014C08091BF
:100420002409E82FF0E0ED5FF64F998190838F5F0C
:10043000809324098093230904C061E0CE010196D2
:1004400055DF81E090E00F90DF91CF9108950895FE
:1004500080E090E0089508958CBD9DBD08958F9231
:100460009F92AF92BF92CF92DF92EF92FF920F9343
:100470001F93CF936C015B017A01FC01C485C430EA
:1004800041F481E090E0F6019383828380E090E084
:100490004BC08A014130584010F000E018E080E580
:1004A00090E0DADF8C2F0E9489144C0163E070E049
:1004B0008C2F0E948A11873111F08C3121F4801623
:1004C000910668F302C000E010E080E590E0C4DF30
:1004D0009801A50160E070E08C2F0E94281460E272
:1004E00070E08C2F0E941A1462E070E08C2F0E9442
:1004F0008A1184FD0FC063E070E08C2F0E948A1186
:10050000811104C08C2F0E94CC0BBBCF80E590E002
:10051000A3DFEACF40E162E070E08C2F0E948111FE
:10052000012B09F4AECFC701CF911F910F91FF901E
:10053000EF90DF90CF90BF90AF909F908F900895F5
:10054000CF92DF92FF920F931F93CF93DF93FC0123
:100550002485243009F074C06A01EB018C01F12C70
:100560008F2D0E942610811103C0F801F48607C068
:100570008B7F8831D1F3F394F4E0FF12F1CFF801CF
:100580008485843009F45CC020910002309101021E
:100590002F5F3F4F11F420E030EC309301022093A5
:1005A0000002409100025091010220E061E00E94AF
:1005B000DF0BF801F4848A818F3F51F48B818F3FE8
:1005C00091F48C818F3F79F48D818F3F61F435C038
:1005D000811109C08B81811106C08C81811103C0FA
:1005E0008D81882351F1C114D10439F180E590E067
:1005F00033DFBE016E5F7F4F8F2D90E0982F8827ED
:1006000044E050E0845F9B4FF1D7B6018F2D0E94EC
:10061000AA1164E070E08F2D0E941A14C8010E9494
:10062000B911873181F061E070E080E090E005D79A
:10063000C8010E94B9118111F1CF84E0F8018487CB
:1006400080E090E002C081E090E0DF91CF911F91C7
:100650000F91FF90DF90CF9008952F923F924F928D
:100660005F926F927F928F929F92AF92BF92CF9242
:10067000DF92EF92FF920F931F93CF93DF93CDB74B
:10068000DEB765970FB6F894DEBF0FBECDBF7C0115
:100690006B013A01FB0120E080E090E06AE03191DB
:1006A000332309F140ED430F4A3080F4689FA001E5
:1006B000699F500D1124CA01C097830F911D37FD0A
:1006C0009A958F3F910559F350F313C03E3289F448
:1006D000233079F0D301A20FB11D12968C932F5FB6
:1006E00080E090E0DCCF233021F4F301858381E0CA
:1006F00020C0F70142815381648175818091FC049F
:100700009091FD04A091FE04B091FF044817590791
:100710006A077B0709F499C1C8D68701085F1F4F94
:100720006F7077277C5FC8010E941011813019F02B
:1007300080E090E0EFC180EA92E09A838983F7013C
:1007400082819381A481B5818B839C83AD83BE8399
:1007500045E350E0BE016F5F7F4FC8010E945A0E13
:10076000892B19F4C12CD12C6BC19FD6F70177834B
:1007700066837627672776277A83698342E050E08D
:10078000BE016F5F7F4FC8010E94BE0F81E090E005
:100790009E878D8742E050E0BE01635F7F4FC801B6
:1007A0000E94BE0F80E091E09E878D8742E050E07E
:1007B000BE01635F7F4FC8010E94BE0F1E861D866B
:1007C00042E050E0BE01635F7F4FC8010E94BE0F50
:1007D00042E050E0BE01635F7F4FC8010E94BE0F40
:1007E00042E050E0BE01635F7F4FC8010E94BE0F30
:1007F0005601F5018081882311F1F6015F01819195
:10080000811115C045018C189D081814190494F421
:100810008F8641E050E0BE01615F7F4FC8010E94BA
:10082000BE0FA401B601C8010E94BE0F03C08E32E4
:1008300029F7E8CF6501FFEFCF1ADF0ADACF1F866D
:1008400041E050E0BE01615F7F4FC8010E94BE0FD2
:10085000C12CDD24D394DE86CD8642E050E0BE017B
:10086000635F7F4FC8010E94BE0FDE86CD8642E0E7
:1008700050E0BE01635F7F4FC8010E94BE0FC801F8
:100880000E94F30F892B09F46DCF63E0A62EB12CE3
:10089000F2E06F0E711C09D61B012C01C8010E94E9
:1008A000670F1816190694F000D6DC01CB018219E7
:1008B0009309A409B50989389341A105B105C8F484
:1008C00062E370E080E090E0B8D5E8CFF7014281C4
:1008D000538164817581808D918DA28DB38D481770
:1008E00059076A077B0741F4848D958DC59721F4DC
:1008F00006C02FEF3FEF9AC02EEF3FEF97C0F701F2
:1009000081A192A10C970CF4A6C04CE050E0BE016E
:100910006F5F7F4FC8010E94210F8B8190E0982F5D
:1009200088272C81822B9A8B898B298130E0322F6A
:1009300022274A81242BF70146815781421753070A
:1009400009F086C097FF84C08F709270892B09F0E0
:10095000DEC0CF80D12CDC2CCC248885C82AC114E1
:10096000D10409F4D1C0812C912C8D8190E0982F75
:1009700088272E81822B8816990608F46FC0812C57
:10098000912C41E050E0BE016D5E7F4FC8010E9496
:10099000210F8B89982F907C09F093C0811186C01C
:1009A0008B898111EECF42E050E0BE01615F7F4F45
:1009B000C8010E94210F42E050E0BE01635F7F4FFB
:1009C000C8010E94210FC8010E943F0FC8010E9468
:1009D0003F0FC8010E943F0FC8010E943F0F42E035
:1009E00050E0BE016F5E7F4FC8010E94210F8F85CE
:1009F00098898115914009F069C02D853E8532277F
:100A0000232732272130310509F060C089899A896E
:100A10008115944009F075C044E050E0B301C8016D
:100A20002C8B3D8B0E94210F2C893D896901F1E0BF
:100A3000AF1AB10829F02FEFC216D20609F42BCF56
:100A4000C8010E94FC10C60165C08EEF9FEF62C016
:100A50002CEF3FEFEBCF2DEF3FEFE8CF41E050E041
:100A6000BE01635F7F4FC8010E94210F8D858111F8
:100A700013C08D858111F2CFC8010E943F0FC801BC
:100A80000E943F0FC8010E943F0FC8010E943F0F04
:100A9000FFEF8F1A9F0A69CF8D859FEF980F9D8773
:100AA000882339F3C8010E943F0FF6CF8B899FEF4F
:100AB000980F9B8B882309F473CFC8010E943F0FC6
:100AC000F5CFC8010E943F0F1B8A6ACF412C512CE1
:100AD00089899A899827892798274816590638F4CA
:100AE000C8010E943F0F8FEF481A580AF1CFEFEF6D
:100AF0008E1A9E0A8C149D0409F043CF26EF3FEF17
:100B000095CF27EF3FEF92CF2AEF3FEF8FCF2BEF1D
:100B10003FEF8CCF65960FB6F894DEBF0FBECDBF0A
:100B2000DF91CF911F910F91FF90EF90DF90CF90C9
:100B3000BF90AF909F908F907F906F905F904F90FD
:100B40003F902F900895CF92DF92EF92FF920F93F4
:100B50001F93CF93DF93CDB7DEB7AF970FB6F8945F
:100B6000DEBF0FBECDBF7C016A0100EA12E01A832E
:100B700009831C861B8688EE93E0A0E0B0E08D8799
:100B80009E87AF87B88B8AED92E09A878987188F06
:100B90000F8B198E1A8E1B8E1C8E84E089A31DA3C9
:100BA0000CA31EA21FA218A619A68091F40490916E
:100BB000F504A091F604B091F7048CA79DA7AEA709
:100BC000BFA78B839C83AD83BE8318861F82AE0133
:100BD0004C5D5F4FCE01019640DD81309105B1F44F
:100BE000D701ED91FC910684F785E02D1BA70AA79C
:100BF0008EA19FA1A8A5B9A58CA79DA7AEA7BFA7A9
:100C0000A601BE01665D7F4FC7011995AF960FB66D
:100C1000F894DEBF0FBECDBFDF91CF911F910F9132
:100C2000FF90EF90DF90CF9008951F920F920FB634
:100C30000F9211240BB60F922F933F934F935F9314
:100C40006F937F938F939F93AF93BF93EF93FF9394
:100C50008091B900887F803609F49CC068F588329D
:100C600009F45BC090F4803109F454C038F488234F
:100C700009F4F6C0883009F44DC0F5C0883109F494
:100C80004CC0803209F45DC0EEC0803409F468C005
:100C900048F4803309F455C0883309F0E4C08093E8
:100CA000D203D8C0803509F44FC0883509F45DC03F
:100CB000883409F0D8C0D6C0883909F4C7C0A8F470
:100CC000883709F467C038F4883609F463C0803780
:100CD00009F460C0C8C0883809F4B8C0803909F484
:100CE0005FC0803809F0BFC05BC0803B09F486C09C
:100CF00038F4803A09F466C0883A09F47FC0B3C07A
:100D0000803C09F4A7C0883C09F4A4C0883B09F4DE
:100D10008AC0A9C08091CF0310C09091D103809167
:100D2000D003981770F5E091D10381E08E0F809386
:100D3000D103F0E0E255FC4F80818093BB0085EC4D
:100D400086C08093D2038EC0E091D10381E08E0FE4
:100D50008093D1038091BB00F0E0E255FC4F80838B
:100D60009091D1038091D0036EC0E091D10381E0D6
:100D70008E0F8093D1038091BB00F0E0E255FC4FD1
:100D800080838091D30381116DC081E08093CE0375
:100D900084EA61C083E08093D4031092A203CFCF92
:100DA0008091A203803208F051C0E091A20381E05B
:100DB0008E0F8093A2038091BB00F0E0EE57FC4FB2
:100DC0008083BDCF85EC8093BC001092D4038091CA
:100DD000A203803230F4E091A203F0E0EE57FC4F22
:100DE00010826091A20370E0E0918003F091810392
:100DF00082E893E019951092A20335C084E08093B5
:100E0000D40310927F0310927E03E0917C03F09153
:100E10007D03199580917E03811105C081E0809347
:100E20007E0310925C03E0917F0381E08E0F80933C
:100E30007F03F0E0E45AFC4F80818093BB009091E7
:100E40007F0380917E03981708F479CF85E880931B
:100E5000BC0009C085EC8093BC001092D40303C091
:100E60001092D20339DAFF91EF91BF91AF919F9128
:100E70008F917F916F915F914F913F912F910F9043
:100E80000BBE0F900FBE0F901F901895FC01538D55
:100E9000448D252F30E0842F90E0821B930B541754
:100EA00010F0CF96089501970895FC01918D828DE1
:100EB000981761F0828DDF01A80FB11D5D968C91AE
:100EC000928D9F5F9F73928F90E008958FEF9FEFB9
:100ED0000895FC01918D828D981731F0828DE80F75
:100EE000F11D858D90E008958FEF9FEF0895FC012F
:100EF000918D228D892F90E0805C9F4F821B9109FC
:100F00008F739927089587E094E0F1DF21E0892B22
:100F100009F420E0822F0895FC01848DDF01A80FE1
:100F2000B11DA35ABF4F2C91848D90E001968F7311
:100F30009927848FA689B7892C93A089B1898C9130
:100F400080648C93938D848D981306C00288F389F6
:100F5000E02D80818F7D80830895EF92FF920F9323
:100F60001F93CF93DF93EC0181E0888F9B8D8C8D55
:100F7000981305C0E889F989808185FD23C0F62E84
:100F80000B8D10E00F5F1F4F0F731127E02E8C8D1C
:100F9000E8120BC00FB607FCFACFE889F989808107
:100FA00085FFF5CFCE01B8DFF2CF8B8DFE01E80FC4
:100FB000F11DE35AFF4FF0820B8FEA89FB89808194
:100FC000806207C0EE89FF896083E889F9898081A2
:100FD0008064808381E090E0DF91CF911F910F9139
:100FE000FF90EF900895CF93DF93EC01888D8823D5
:100FF000C1F0EA89FB89808185FD05C0A889B9898E
:101000008C9186FD0EC00FB607FCF5CF808185FF61
:10101000F2CFA889B9898C9185FFEDCFCE017CDF15
:10102000E8CFDF91CF91089580E090E0892B19F00F
:101030006ADF811125C080E090E0892B41F080E0DB
:1010400090E0892B21F00E94000081111CC080E0FB
:1010500090E0892B41F080E090E0892B21F00E9404
:101060000000811113C080E090E0892BA1F080E0A6
:1010700090E0892B81F00E94000081110AC0089540
:101080000E940000D8CF0E940000E1CF0E94000023
:10109000EACF0C940000089590E0FC013197E23112
:1010A000F10508F04EC08827EE58FF4F8F4F0C9483
:1010B0003E21809180008F7703C0809180008F7DDA
:1010C00080938000089580918000877FF9CF84B558
:1010D0008F7702C084B58F7D84BD08958091B00064
:1010E0008F7703C08091B0008F7D8093B00008950A
:1010F000809190008F7707C0809190008F7D03C012
:1011000080919000877F8093900008958091A00047
:101110008F7707C08091A0008F7D03C08091A000D1
:10112000877F8093A0000895809120018F7707C06A
:10113000809120018F7D03C080912001877F809363
:10114000200108953FB7F8948091AA039091AB03D2
:10115000A091AC03B091AD0326B5A89B05C02F3F6D
:1011600019F00196A11DB11D3FBFBA2FA92F982FCD
:101170008827820F911DA11DB11DBC01CD0142E048
:10118000660F771F881F991F4A95D1F708958F9290
:101190009F92AF92BF92CF92DF92EF92FF920F9306
:1011A0001F93CF93DF937C01EB016C0182E0C80EAB
:1011B000D11C4701E5E08E0E911C00E010E0F60125
:1011C00041916F0150E060E070E02AE0CE010E94A2
:1011D0004E155C01E881F9810190F081E02D6EE20D
:1011E000CE0119958A0D9B1D080F191FC814D9042B
:1011F00031F7F701458150E060E070E02AE0CE0170
:101200000E944E15800F911FDF91CF911F910F917A
:10121000FF90EF90DF90CF90BF90AF909F908F9016
:1012200008950E9446211F93CF93DF93182F66E203
:1012300070E00E948A11C82FD0E067E270E0812F31
:101240000E948A11DC2FCC279E01282BC901DF9137
:10125000CF911F9108951F920F920FB60F921124F4
:101260000BB60F922F933F934F935F936F937F93A0
:101270008F939F93AF93BF93EF93FF9387E094E097
:101280004BDEFF91EF91BF91AF919F918F917F9135
:101290006F915F914F913F912F910F900BBE0F90E7
:1012A0000FBE0F901F9018951F920F920FB60F92BE
:1012B00011240BB60F922F938F939F93EF93FF936D
:1012C000E0911704F09118048081E0911D04F091E1
:1012D0001E0482FD12C09081809120048F5F8F7365
:1012E00020912104821751F0E0912004F0E0E95FA1
:1012F000FB4F958F8093200401C08081FF91EF9177
:101300009F918F912F910F900BBE0F900FBE0F905A
:101310001F901895CF93DF93282F30E0F901E45CFC
:10132000FE4F8491F901E456FE4FD491F901EE513C
:10133000FE4FC491CC2389F08111AEDEEC2FF0E09A
:10134000EE0FFF1FEE5DFE4FA591B491EC91ED23E2
:1013500081E090E021F480E002C080E090E0DF9145
:10136000CF9108951F93CF93DF93282F30E0F90199
:10137000E45CFE4F8491F901E456FE4FD491F901EB
:10138000EE51FE4FC491CC23C1F0162F811184DEA3
:10139000EC2FF0E0EE0FFF1FE85FFE4FA591B49138
:1013A0008FB7F894111105C09C91ED2FE095E923BA
:1013B00002C0EC91ED2BEC938FBFDF91CF911F9189
:1013C0000895CF93DF9390E0FC01E456FE4F249103
:1013D000FC01EE51FE4F8491882361F190E0880F6B
:1013E000991FFC01EE57FE4FC591D491FC01E85FB7
:1013F000FE4FA591B491611109C09FB7F8948881FF
:10140000209582238883EC912E230BC0623061F4F7
:101410009FB7F8943881822F809583238883EC913D
:101420002E2B2C939FBF06C08FB7F894E8812E2BEC
:1014300028838FBFDF91CF9108958F929F92AF92B3
:10144000BF92CF92DF92EF92FF926B017C017ADE26
:101450004B015C01C114D104E104F104E9F072DE36
:10146000DC01CB0188199909AA09BB09883E934080
:10147000A105B10578F321E0C21AD108E108F1080D
:1014800088EE880E83E0981EA11CB11CC114D10403
:10149000E104F10421F7DECFFF90EF90DF90CF90D1
:1014A000BF90AF909F908F9008952FB7F894609160
:1014B000A6037091A7038091A8039091A9032FBF61
:1014C00008951F920F920FB60F9211242F933F93FE
:1014D0008F939F93AF93BF938091A6039091A7039F
:1014E000A091A803B091A9033091A50323E0230F95
:1014F0002D3720F40196A11DB11D05C026E8230F4C
:101500000296A11DB11D2093A5038093A60390937D
:10151000A703A093A803B093A9038091AA03909175
:10152000AB03A091AC03B091AD030196A11DB11D19
:101530008093AA039093AB03A093AC03B093AD0345
:10154000BF91AF919F918F913F912F910F900FBEBF
:101550000F901F9018952C9A08952C9808951F931A
:10156000CF93DF93182F60E270E0D4D6C82FD0E07D
:1015700061E270E0812FCED6DC2FCC279E01282B94
:10158000C901DF91CF911F9108958EBD00000DB468
:1015900007FEFDCF8EB50895CF92DF92EF92FF92B6
:1015A0000F931F93CF93DF93EC017A018B016C01B2
:1015B000C40ED51ECC15DD0579F0CFDF8FE0E5DF59
:1015C0008D2FE3DF8C2FE1DF219680E0DEDFF80155
:1015D00081938F01C0DFEECFC701DF91CF911F91C3
:1015E0000F91FF90EF90DF90CF900895CF92DF9210
:1015F000EF92FF920F931F93CF93DF93EC017A0149
:101600008B016C01C40ED51ECC15DD0571F0A5DF74
:1016100080EFBBDF8D2FB9DF8C2FB7DF2196F8016C
:1016200081918F01B2DF97DFEFCFC701DF91CF91BB
:101630001F910F91FF90EF90DF90CF9008951F932F
:10164000CF93DF931F921F92CDB7DEB7182F6A8317
:10165000998383DF80EF99DF9981892F96DF812F2E
:1016600094DF6A81862F91DF76DF81E00F900F9003
:10167000DF91CF911F9108951F93CF93DF931F9216
:101680001F92CDB7DEB7182F80E590E069837A838B
:101690000E942C0221E041E050E069817A81812F93
:1016A0000E94D5140E942B0281E090E00F900F90D1
:1016B000DF91CF911F910895FF920F931F93CF93C6
:1016C000DF93F82E80E590E00E942C02C0E0D0E08D
:1016D0008F2DA9DD8C01892B19F08F2DA4DDEC0154
:1016E000C017D107A9F70E942B02CE01DF91CF913D
:1016F0001F910F91FF900895AF92BF92CF92DF920A
:10170000EF92FF921F93CF93DF93182F5B017A0123
:1017100080E590E00E942C02C0E0D0E0812F83DDC4
:101720006C01892B19F0812F7EDDEC01CC15DD05D4
:10173000A9F7209791F463E070E0812FEBD5843115
:10174000F1F08823E1F0C1E0D0E08C3111F4C0E089
:10175000D0E0D195C195D10912C0EC16FD060CF46C
:10176000E7011C161D065CF420E0AE01B501812FD7
:101770000E94D51460E470E0812F0E941A140E9428
:101780002B02CE01DF91CF911F91FF90EF90DF9060
:10179000CF90BF90AF900895CF93C82F80E590E091
:1017A0000E942C0260E170E08C2F0E941A144FEF0F
:1017B00062E070E08C2FA5D5CF910C942B02FF92A4
:1017C0000F931F93CF93DF931F921F92CDB7DEB776
:1017D000F82E8A012A836983DFDF80E590E00E948A
:1017E0002C022A816981462F422B60E070E08F2D08
:1017F00088D50115110551F40091A3031091A4039C
:101800000F5F1F4F1093A4030093A303412F64E0C5
:1018100070E08F2D76D5402F65E070E08F2D71D56B
:1018200061E070E08F2D0E941A140E942B0281E06B
:101830000F900F90DF91CF911F910F91FF9008951E
:10184000CF92DF92EF92FF920F931F93CF93DF938C
:10185000CDB7DEB768970FB6F894DEBF0FBECDBF29
:101860008C01F90180EA92E09A8389833FEF3B8300
:101870003C833D831E8298878F83C280D380E4801F
:10188000F580C986DA86EB86FC86FA01C280D380B1
:10189000E480F580CF86D88AE98AFA8A9C8B8B8B84
:1018A000FB0182819381A481B5818D8B9E8BAF8B4F
:1018B000B88F6CE271E080E090E0BFDDFFB6F89495
:1018C0008091D808811123C0E7E1F2E08491E1ED35
:1018D000F1E09491E82FF0E0EE0FFF1FEE57FE4F7E
:1018E000A591B491EC91E92319F461E085E33ADD27
:1018F00061E085E366DD8CB580618CBD8CB580646C
:101900008CBD61E084E35DDD61E083E35ADD8091BD
:10191000D8088F5F8093D808FFBE249A80E590E0B6
:101920000E942C0260E880E090E089DE65E58BE1B2
:1019300090E085DE65E58AE190E081DE0E942B0281
:1019400080E090E49093F8038093F70380E090E6C2
:10195000909300048093FF0380E098E49093FA034F
:101960008093F90380E098E6909302048093010449
:1019700080E090E59093FC038093FB0380E090E788
:10198000909304048093030480E098E59093FE0311
:101990008093FD0380E098E790930604809305040C
:1019A00080E590E00E942C0246E050E0B80189E01A
:1019B00090E01CDE44E050E0BE016B5E7F4F8FE0A4
:1019C00090E014DE44E050E0BE01675F7F4F81E0AD
:1019D00090E00CDE44E050E0BE016D5F7F4F85E09B
:1019E00090E004DE0E942B028F859889A989BA892C
:1019F0008093F4049093F504A093F604B093F70455
:101A000068960FB6F894DEBF0FBECDBFDF91CF91C1
:101A10001F910F91FF90EF90DF90CF900895AF92BC
:101A2000BF92CF92DF92EF92FF920F931F93CF93CB
:101A3000DF93EE24E394DD24DA9405EEC02E85ECEA
:101A4000B82E07ED13E08091CA08823111F4C4E08A
:101A500001C0C3E08091C9089091D4039111FCCFDB
:101A6000E092D403E092D303D092D2031092D10338
:101A70009FEF9C0F9093D003E092CF039091CF0300
:101A8000880F892B8093CF038091CE03813069F436
:101A90001092CE038091CF038093BB008091BC0055
:101AA00083FDF8CFB092BC0002C0C092BC00809110
:101AB000D4038130E1F38091D1038C1718F4F090B6
:101AC000D10301C0FC2EAEEAB3E0E7EDF3E08E2FC8
:101AD000801B8F1518F48D918193F9CF1092D60346
:101AE000F092D503D0E08091D603F81671F0AA24C5
:101AF000A394AD0E80E095E00E94AE01ED2FF0E0E2
:101B0000E753F74F8583DA2DEECFEC2FF0E0E75364
:101B1000F74F848187FD97CF8091CA088E3009F4F2
:101B200055C0E8F48C3009F0A0C06091CE08262F93
:101B30002F706078862F90E0A0E0B0E0B82FAA2741
:101B400099278827922B2091CF08BC01CD01622BC9
:101B50000E945F1F20E030E04AE754E471C080310A
:101B600009F455C0823109F080C08091CE084091BF
:101B7000CF0850E060E070E0762F652F542F4427A7
:101B80009091D008492B082F017010E020E030E040
:101B9000980111270027402B512B622B732B807843
:101BA00090E0A0E0B0E0B82FAA27992788278A0103
:101BB0009B01082B192B2A2B3B2BC901B8010E9432
:101BC0005F1F20E030E04AE751E43AC02091CE08A0
:101BD000822F8F7B2078422F50E060E070E0742FDE
:101BE000662755274427582B8091CF089A01AB01CF
:101BF000282BAAEFB0E00E948C202091CD0830E085
:101C000040E050E00E947020CA01B90131C06091EB
:101C1000CE08262F2F776078862F90E0A0E0B0E0E6
:101C2000B82FAA2799278827922B2091CF08BC018B
:101C3000CD01622B0E945F1F20E030E04AE752E4B2
:101C40000E949A1F6B017C018091CD08682F70E083
:101C500080E090E00E945F1F9B01AC01C701B601CC
:101C60000E94A5200E940D2103C060E070E0CB011E
:101C7000DF91CF911F910F91FF90EF90DF90CF9068
:101C8000BF90AF9008950895CF93DF931F92CDB783
:101C9000DEB76983DC01ED91FC910280F381E02DD8
:101CA00041E050E0BE016F5F7F4F19950F90DF91CB
:101CB000CF910895FF920F931F93CF93DF93FB0172
:101CC000DC0157961C921E9256975896FC90828182
:101CD000811109C08381811106C08481811103C0F3
:101CE00085818823E9F041155105D1F08A01EF0182
:101CF00080E590E00E942C02BE016E5F7F4F2F2D89
:101D000030E0922F882744E050E0845F9B4F6EDCE8
:101D1000B8018F2D1FD30E942B0281E090E002C0FA
:101D200080E090E0DF91CF911F910F91FF90089597
:101D3000BF92CF92DF92EF92FF920F931F93CF93B8
:101D4000DF9300D000D0CDB7DEB7FC01208D24306A
:101D500009F04EC06A017B018C01B12C63E070E098
:101D60008B2DD8D2811103C0F801B08E06C0883106
:101D7000D9F3B394F4E0BF12F1CFF801808D843031
:101D8000B9F196E0E8EAF2E0DE01119601900D92D9
:101D90009A95E1F7F70193819F779C8394819D83C6
:101DA00095819E83B7016E5F7F4F90E0982F8827C3
:101DB00044E050E0845F9B4F19DCB601F801808D50
:101DC000C9D2F801808D90E0982F882746E050E036
:101DD000BE016F5F7F4F8A5F9B4F08DCF801128E58
:101DE000118E20E8A60162E0808DE9DC81E001C06F
:101DF00080E026960FB6F894DEBF0FBECDBFDF9110
:101E0000CF911F910F91FF90EF90DF90CF90BF90F7
:101E10000895CF93DF931F92CDB7DEB7FC01218DDC
:101E2000328D232B41F0BE016F5F7F4F808D24DC0C
:101E3000898190E002C08FEF9FEF0F90DF91CF91EB
:101E40000895CF93DF93FC01218D328D211531054B
:101E500019F48FEF9FEF10C0EC014217530708F001
:101E6000A901888D49DC181619069CF7298D3A8D31
:101E7000281B390B3A8F298FDF91CF9108950F934B
:101E80001F93CF93DF931F92CDB7DEB7FC01218D57
:101E9000328D232B59F08C0141E050E0BE016F5F81
:101EA0007F4F808D29DC181619061CF08FEF9FEFED
:101EB00008C0F801818D928D0197928F818F898161
:101EC00090E00F90DF91CF911F910F9108950F93A4
:101ED0001F93CF93DF93CDB7DEB728970FB6F89453
:101EE000DEBF0FBECDBF8C01F801818D928D892B95
:101EF00049F0D801ED91FC910284F385E02DC801F1
:101F00001995F2CF808DD8DB1816190654F548E0E4
:101F100050E0BE016F5F7F4FD80158968C91ECDB8B
:101F20009C0118161906DCF489819A81AB81BC8169
:101F3000F801808B918BA28BB38B8D8190E0982FD1
:101F400088272E81820F911D958B848B2F8130E005
:101F5000322F22278885280F311D328F218FC9010A
:101F600002C080E090E028960FB6F894DEBF0FBE66
:101F7000CDBFDF91CF911F910F910895AF92BF9286
:101F8000CF92DF92FF920F931F93CF93DF938C0139
:101F90005B01EA01FC01C688D788F08C80E590E0FF
:101FA0000E942C028F2DB5D48C179D0718F48F2D0D
:101FB000B0D4EC019E01A501B6018F2D49D40E9439
:101FC0002B02F801868997898C0F9D1F978B868B32
:101FD000CE01DF91CF911F910F91FF90DF90CF90B5
:101FE000BF90AF900895CF93FC01C08D80E590E045
:101FF0000E942C0260E270E08C2F1CD462E070E042
:102000008C2F88D184FD17C062E070E08C2F82D1C4
:1020100083FF0AC048E162E070E08C2F72D10E9419
:102020002B0280E090E010C00E942B0280E590E03F
:102030000E942C02E3CF40E162E070E08C2F61D17E
:102040000E942B0281E090E0CF9108951F93CF93DF
:10205000DF931F92CDB7DEB7182F80E590E00E9486
:102060002C0263E070E0812F55D189830E942B02FE
:1020700089810F90DF91CF911F910895FC01818D8F
:10208000928D0895FC0184899589089520EA32E0B3
:10209000FC0131832083FB01408951896289738966
:1020A000FC0142835383648375830895DC01ED91C1
:1020B000FC91048CF58DE02D199480E00895CF9368
:1020C000DF931F92CDB7DEB76983DC01ED91FC9100
:1020D0000280F381E02D41E050E0BE016F5F7F4F51
:1020E00019950F90DF91CF910895FC019485FB0124
:1020F0008485981303C081E0943009F480E008954A
:1021000021E0FC018485843009F420E0822F0895C9
:102110000895CF92DF92EF92FF920F931F93CF9388
:10212000DF93CDB7DEB7AF970FB6F894DEBF0FBE23
:10213000CDBF7C016A0100EA12E01A8309831C8684
:102140001B8688EE93E0A0E0B0E08D879E87AF8786
:10215000B88B8AED92E09A878987188F0F8B198E3A
:102160001A8E1B8E1C8E84E089A31DA30CA31EA2B5
:102170001FA218A619A68091F4049091F504A091CD
:10218000F604B091F7048CA79DA7AEA7BFA78B83D9
:102190009C83AD83BE8318861F82AE014C5D5F4F6A
:1021A000CE0101960E942D0381309105B1F4D70133
:1021B000ED91FC910488F589E02D1BA70AA78EA15B
:1021C0009FA1A8A5B9A58CA79DA7AEA7BFA7A6014B
:1021D000BE01665D7F4FC7011995AF960FB6F894A3
:1021E000DEBF0FBECDBFDF91CF911F910F91FF904A
:1021F000EF90DF90CF900895CF93DF93EC01888D1F
:10220000843059F0C9DAE88DF0E0EE0FFF1FE45C8E
:10221000FC4F1182108284E0888FDF91CF91089566
:10222000EF92FF921F93CF93DF93FC01208D243018
:1022300011F080E01AC07B01EC0110E0812F06DF75
:10224000811102C0188F05C08831E1F31F5F14307F
:10225000A9F7888D843069F3FD86EC861A8E198E75
:1022600020E0A70162E0ABDA81E0DF91CF911F911E
:10227000FF90EF9008950F931F93CF93DF931F92DA
:10228000CDB7DEB78C01DC01ED91FC910084F185C6
:10229000E02D1995892B49F0BE016F5F7F4FF80142
:1022A0008485EAD9898190E002C08FEF9FEF0F907B
:1022B000DF91CF911F910F910895FC0184851CCA75
:1022C000CF93DF931F92CDB7DEB741E050E0BE0160
:1022D0006F5F7F4FFC0184850FDA181619061CF416
:1022E000898190E002C08FEF9FEF0F90DF91CF9137
:1022F0000895FC018485843009F0DEC980E090E017
:1023000008959B0190E00496982F8827642F820FF0
:10231000931F95C90F931F93CF93DF931F92CDB750
:10232000DEB790E00496982F88278C01060F171FC0
:1023300014D98FE02AD9812F28D9802F26D980E07F
:1023400024D9898308D989810F90DF91CF911F917A
:102350000F910895CF93DF93C82FD62F472F60E1B9
:1023600070E0CFDF4D2F61E170E08C2FDF91CF91D6
:10237000C8CFFC018485843009F068CE80E00895E0
:102380008F929F92AF92BF92CF92DF92EF92FF9285
:102390000F931F93CF93DF93CDB7DEB72D970FB673
:1023A000F894DEBF0FBECDBF7C0100E010E038EE38
:1023B000832E33E0932EA12CB12C4AE2C42E42E0AE
:1023C000D42E1C821B828D829E82AF82B886DA82D6
:1023D000C9820D87CE010196CCDF811122C0F701A1
:1023E0004481558120E061E0802FE9D980E590E0CB
:1023F0000E942C0263E070E0802F8CDF833121F497
:1024000062E070E0802F16D20E942B02F7018481D7
:102410009581000F111FF801E45CFC4F91838083CC
:1024200005C00F5F1F4F0430110559F62D960FB6EA
:10243000F894DEBF0FBECDBFDF91CF911F910F91FA
:10244000FF90EF90DF90CF90BF90AF909F908F90D4
:102450000895CF93DF93FC0124852430C9F0EC016B
:1024600088DF843181F0882371F0883161F08C310C
:1024700061F4E881F9810084F185E02DCE011995A0
:1024800021E0892B19F420E001C021E0822F01C056
:1024900080E0DF91CF910895CF92DF92EF92FF928B
:1024A0001F93CF93DF93FC011485143091F1EC015D
:1024B00080E590E00E942C0268E070E0812FBAD1A4
:1024C0000E942B020E94550A6B017C01CE0151DF54
:1024D0008823A9F061E070E080E090E00E941D0A8E
:1024E0000E94550ADC01CB018C199D09AE09BF0978
:1024F000883E9340A105B10548F38C854DD9EC8504
:10250000F0E0EE0FFF1FE45CFC4F1182108284E0CC
:102510008C87DF91CF911F91FF90EF90DF90CF904C
:1025200008954F925F926F927F928F929F92AF9297
:10253000BF92CF92DF92EF92FF921F93CF93DF93E0
:10254000CDB7DEB72D970FB6F894DEBF0FBECDBF67
:102550007C019CE3A92E93E0B92E10E0C12CD12C74
:1025600028EE422E23E0522E612C712C3AE2832E6B
:1025700032E0932E1C821B824D825E826F827886AF
:102580009A8289821D87D5012D913D915D01F701C8
:10259000848195812817390799F4CE010196E9DEE7
:1025A000843159F0CE010196E4DE8C3149F4CE013C
:1025B00001969FDE892B91F003C0CC24C394D12CCB
:1025C0001F5F1430B9F6CD2869F4D701ED91FC9165
:1025D0000084F185E02DC701199504C0CE01019654
:1025E0005BDFEECF2D960FB6F894DEBF0FBECDBFEA
:1025F000DF91CF911F91FF90EF90DF90CF90BF9030
:10260000AF909F908F907F906F905F904F900895C4
:102610002F923F924F925F926F927F928F929F92F2
:10262000AF92BF92CF92DF92EF92FF920F931F93E0
:10263000CF93DF93CDB7DEB72E970FB6F894DEBFFA
:102640000FBECDBF7C016B015A016BDF0CE313E0C1
:1026500020E0612C712C88EE282E83E0382E412C4E
:10266000512C9AE2892E92E0992E1C821B822D8297
:102670003E824F8258869A8289822D87F801419145
:1026800051918F01F701848195814817590739F4D9
:10269000CE0101962E876DDE2E858731E9F02F5F02
:1026A000243019F7C3012E960FB6F894DEBF0FBE83
:1026B000CDBFDF91CF911F910F91FF90EF90DF90F1
:1026C000CF90BF90AF909F908F907F906F905F90D2
:1026D0004F903F902F900895A501B601CE0101962D
:1026E0002E870E942F02680E791E2E85D8CFCF929A
:1026F000DF92EF92FF920F931F93CF93DF936C01C2
:102700007A018B01C0E0D0E0CE15DF0589F0D80159
:102710006D918D01D601ED91FC910190F081E02D3C
:10272000C6011995892B11F47E0102C02196ECCFC8
:10273000C701DF91CF911F910F91FF90EF90DF9034
:10274000CF900895CF9390E19093CA0891E0909331
:10275000CD089093CB08682F70E0615071096370C9
:10276000772785E0660F771F8A95E1F768616093A8
:10277000CC08C091C90890932509C09326091092EE
:1027800024091092230980E095E00E94F9018091CC
:102790002309813208F046C09091D4039111FCCFF7
:1027A00092E09093D40391E09093D3039FEF9093A2
:1027B000D2031092D1038093D003A3E0B9E02EEAB4
:1027C00033E0F9019E2F921B981718F49D91919375
:1027D000F9CF1092CF038091CF03CC0FC82BC093B9
:1027E000CF038091CE03813061F41092CE038091AB
:1027F000CF038093BB008091BC0083FDF8CF85ECB4
:1028000001C085EE8093BC008091D4038230E1F357
:102810008091D2038F3F31F08091D203803211F04A
:102820008091D20310922409109223091092250955
:10283000CF910895CF93C82F462F61E070E061DDFE
:1028400061E070E08C2F66DD8111FACFCF910895A1
:102850009F92AF92BF92CF92DF92EF92FF920F932F
:102860001F93CF93DF93982E8B015A01690164E285
:1028700070E050DDE82EF12C65E270E0892D4ADD34
:10288000FE2CEE24E82AE701C00FD11F9E0137700D
:10289000E92CF12CC701880F991FAC0149505C4FFE
:1028A0007A01FA0180819181820F931FA9014C0D59
:1028B0005D1D4130584090F000E018E0021B130B02
:1028C000A801B5010E94F60AA601401B510BB501F3
:1028D000600F711FF7018081918102C0A601B501CF
:1028E0000E94F60ACC0DDD1D4D2F64E270E0892DAB
:1028F00008DD4C2F65E270E0892DDF91CF911F91AB
:102900000F91FF90EF90DF90CF90BF90AF909F908E
:10291000F8CCFF920F931F93CF93DF93F82EC0E074
:10292000D0E08F2D0E94AF0A8C01892B21F08F2DD2
:102930000E94AF0AEC01C017D10799F7CE01DF91D1
:10294000CF911F910F91FF900895E7E2F8E08191F8
:10295000DF01A154B1408C9388E0E73CF807B9F758
:102960000895FC019F01281B390B2617370784F4B3
:102970002091E4063091E5064191D901A957B84F5D
:102980004C932F5F3F4F3093E5062093E406EACF48
:102990000895E7EEF6E08191DF01A15CBE4F8C93D4
:1029A00087E0E738F807B9F708958F929F92AF92C2
:1029B000BF92CF92DF92EF92FF920F931F93CF932C
:1029C000DF93B82E4B018A01A22E68E270E0A2DCF0
:1029D000C82FD0E069E270E08B2D9CDCDC2FCC2787
:1029E000C82B9E013770CB2CD12CC601880F991FA4
:1029F000AC0141505C4F6A01FA0180819181820FE4
:102A0000931FA801420F531F4130584098F060E0D7
:102A100078E07B01E21AF30AA701B4010E94CC0A14
:102A2000A8014E195F09B4016E0D7F1DF60180816A
:102A3000918102C0A801B4010E94CC0AA1100CC06F
:102A4000C00FD11F4D2F68E270E08B2D5ADC4C2F48
:102A500069E270E08B2D55DCDF91CF911F910F91D2
:102A6000FF90EF90DF90CF90BF90AF909F908F90AE
:102A700008956115710579F0FB0101900020E9F7D7
:102A80003197AF01461B570BDC01ED91FC910280A1
:102A9000F381E02D199480E090E008954F925F92C9
:102AA0006F927F92EF92FF920F931F93CF93DF93DA
:102AB000CDB7DEB7A1970FB6F894DEBF0FBECDBF7E
:102AC0007C01FA01CB0119A2223008F42AE08E0120
:102AD0000F5D1F4F422E512C612C712CBF01A301A1
:102AE00092010E944E20F901CA01015011096A3079
:102AF00014F4605D01C0695CD8016C93232B242B16
:102B0000252B61F7B801C701B4DFA1960FB6F89481
:102B1000DEBF0FBECDBFDF91CF911F910F91FF9010
:102B2000EF907F906F905F904F900895CF92DF92DB
:102B3000EF92FF92CF93DF938130910509F44AC061
:102B40008230910509F446C08330910509F442C0F2
:102B50008430910509F43EC085309105D9F1863065
:102B60009105C1F18F309105A9F18031910591F165
:102B7000EC0181E08093E60664E273E087E094E094
:102B800078DF6E010D2E000CEE08FF08F7FE14C072
:102B9000E0910704F09108040190F081E02D6DE2CE
:102BA00087E094E0199544275527BA014C195D092F
:102BB0006E097F092AE003C02AE0B701A60187E079
:102BC00094E06CDF6DE073E087E094E052DFCE01CB
:102BD00080589F4F9093C8088093C708DF91CF918A
:102BE000FF90EF90DF90CF900895CF93DF93CDB714
:102BF000DEB7AA970FB6F894DEBF0FBECDBF7894AC
:102C000084B5826084BD84B5816084BD85B58260F1
:102C100085BD85B5816085BD80916E0081608093A2
:102C20006E0010928100809181008260809381000B
:102C3000809181008160809381008091800081601B
:102C4000809380008091B10084608093B100809176
:102C5000B00081608093B000809191008260809389
:102C6000910080919100816080939100809190000B
:102C70008160809390008091A10082608093A10088
:102C80008091A10081608093A1008091A00081606B
:102C90008093A00080912101826080932101809126
:102CA00021018160809321018091200181608093C6
:102CB000200180917A00846080937A0080917A006C
:102CC000826080937A0080917A00816080937A009C
:102CD00080917A00806880937A001092C1001092EF
:102CE000E8041092E9041092EA041092EB041092A6
:102CF000A6041092A7041092A8041092A9040E949E
:102D0000550A6B017C014B015C0128EB820E2BE024
:102D1000921EA11CB11C0E94550A6C157D058E05E2
:102D20009F0528F086169706A806B906A0F787E043
:102D300094E09093E7048093E604E0911704F09107
:102D4000180482E08083E0911304F091140410824F
:102D5000E0911504F091160480E1808310921F0425
:102D6000E0911B04F0911C0486E08083E09119043B
:102D7000F0911A04808180618083E0911904F091C0
:102D80001A04808188608083E0911904F0911A040C
:102D9000808180688083E0911904F0911A04808119
:102DA0008F7D80830E94550A6093A6047093A704C8
:102DB0008093A8049093A9046EEF72E08091E604DA
:102DC0009091E70456DE0E94550A6B017C014B018D
:102DD0005C013AE0830E911CA11CB11C0E94550AB3
:102DE0006C157D058E059F0528F086169706A806AA
:102DF000B906A0F711E01093BA0486E0E2E0F2E031
:102E0000DE01919601900D928A95E1F780EA92E0B9
:102E10009A8389832FEF2B832C831D821E829F87A9
:102E20008E873CEA388B20E1298B1A8B4EEF4B8B37
:102E30009C8F8B8F3D8F2E8F8BE08F8F8FE088A3A1
:102E40009E012F5F3F4FAE01425F5F4FBE01655E47
:102E50007F4FCE0181960E94200C1092D6031092D3
:102E6000D50310922409109223091092D4031093D1
:102E7000D3031092CE0361E084E10E94B20961E0C5
:102E800085E10E94B2098091B9008E7F8093B900DC
:102E90008091B9008D7F8093B90088E48093B80059
:102EA00085E48093BC0061E087E10E94E10961E074
:102EB00089E10E94E10961E08BE10E94E10961E0A2
:102EC0008DE10E94E10961E08FE10E94E10961E08A
:102ED00081E20E94E10961E083E20E94E10961E090
:102EE00085E20E94E10960E086E10E94E10960E07C
:102EF00088E10E94E10960E08AE10E94E10960E066
:102F00008CE10E94E10960E08EE10E94E10960E04D
:102F100080E20E94E10960E082E20E94E10960E053
:102F200084E20E94E10961E087E10E94B20961E068
:102F300089E10E94B20961E08BE10E94B20961E07F
:102F40008DE10E94B20961E08FE10E94B20961E067
:102F500081E20E94B20961E083E20E94B20961E06D
:102F600085E20E94B209812C912C54018394F8EEE1
:102F70002F2EF3E03F2E412C512C0E94550A672B37
:102F8000682B692B41F40E94550A62307105810556
:102F9000910508F412C10E94550A6093580370937A
:102FA000590380935A0390935B030091540310914B
:102FB000550320915603309157036017710782071C
:102FC000930740F460935403709355038093560322
:102FD0009093570300915403109155032091560389
:102FE000309157036B017C01C01AD10AE20AF30A3F
:102FF000970186010A3F11052105310508F4DDC05E
:103000006093540370935503809356039093570332
:1030100024EF31E040E050E02093B2043093B30459
:103020004093B4045093B5041092B6041092B704C0
:103030001092B8041092B9048091AA049091AB0444
:10304000A091AC04B091AD048093AE049093AF0412
:10305000A093B004B093B1040E94550A6093AA04EF
:103060007093AB048093AC049093AD040E94550A16
:103070006093A6047093A7048093A8049093A90476
:103080000E94550A6B017C0160E173E08091E604C7
:103090009091E704EEDC2AE041E050E060E070E06F
:1030A0008091E6049091E704F9DC67E173E0809198
:1030B000E6049091E704DDDC2AE0B701A6018091E7
:1030C000E6049091E704EADC69E173E08091E604AC
:1030D0009091E704CEDC8091AA049091AB04A0917A
:1030E000AC04B091AD04B701A601481B590B6A0BA3
:1030F0007B0B2AE08091E6049091E704CFDC69E144
:1031000073E08091E6049091E704B3DC4091AA0457
:103110005091AB046091AC047091AD048091AE0409
:103120009091AF04A091B004B091B104481B590B29
:103130006A0B7B0B2AE08091E6049091E704AEDCF9
:103140006BE173E08091E6049091E70492DC0E94C9
:10315000550AAB01BC012AE08091E6049091E70496
:103160009DDC0091E6041091E7046DE173E0C80175
:1031700080DC6DE073E0C8017CDC0E94550A6B01C5
:103180007C019B01AC012B5F3F4F4F4F5F4F2FA343
:1031900038A749A75AA70E94550A6C157D058E05C8
:1031A0009F0508F0D3C50E94550A6093AA04709346
:1031B000AB048093AC049093AD044091DA06509137
:1031C000DB0621E030E0473E83E0580714F020E0C2
:1031D00030E0429FC001439F900D529F900D1124FB
:1031E00001969093DB068093DA068CEE94E099D9F1
:1031F0000CE313E0D12C7AE2E72E72E0F72E1C826A
:103200001B822D823E824F825886FA82E982DD86B9
:10321000D8012D913D918D018091F0049091F104A0
:103220002817390739F5CE010196A3D8873111F057
:103230008C3101F5CE0101965CD8892BD9F08B81B8
:103240009C81998B888B8D819E81AF81B8858A8B7B
:103250009B8BAC8BBD8B89859A85AB85BC858E8B12
:103260009F8BA88FB98F8AE292E09F878E878D858A
:103270008A8F0FC0D394B4E0DB12C1CF198A188AA9
:103280002A8A3B8A4C8A5D8A8AE292E09F878E87EF
:10329000DA8ECE010E962DD8892B09F44DC04091BF
:1032A000DC065091DD0621E030E0473EE3E05E07BA
:1032B00014F020E030E0429FC001439F900D529FE8
:1032C000900D112401969093DD068093DC0600E0BA
:1032D00010E0CE010E960DD8892B59F0CE010E9636
:1032E0000E946011F801E951F94F80830F5F1F4F71
:1032F000F0CF1093E1060093E0061092E5061092DD
:10330000E4061092E3061092E2068091EE0690E049
:103310000DDC81E08093D5069091D40691110CC00C
:103320008093D4060E94550A6093D6067093D70600
:103330008093D8069093D9060E94550A0091D6062C
:103340001091D7062091D8063091D906005A154120
:103350002F4F3F4F061717072807390708F06AC095
:103360008091D406882309F465C01092D40662C007
:10337000E45FFA4FD901AB51BE4F4C9150E0542F4E
:10338000442711966C91462B61E0452B09F460E0CF
:103390006083F901E052FE4FB6E0B0836CE070E06C
:1033A0008951994FDEDA4091DE065091DF0621E027
:1033B00030E0473EE3E05E070CF098C2429FC00158
:1033C000439F900D529F900D112401969093DF061C
:1033D0008093DE061092C8081092C7088091C70833
:1033E0009091C808813891050CF1D3DA8091E206FA
:1033F0009091E306FC01E251F94F2081205820838F
:103400009C01245F3A4FF901E052FE4FA3E0A083F4
:1034100033962091E606208369E070E08951994F48
:10342000A0DA1092C8081092C7088FDA8091D506EA
:10343000811157C38091C7089091C808009709F47B
:103440008AC38130910509F08BC0E091E206F091CA
:10345000E306E45FFA4FDF01AD51BE4F2C9130E03F
:10346000322F222711968C917901E82A11968C919E
:1034700090E0982F8827EA51FE4F2081822B9701F8
:10348000280F391F253631051CF081E890E08DC0EA
:103490008C0197FF02C0095F1F4FB3E01595079598
:1034A000BA95E1F7980143E0220F331F4A95E1F7FF
:1034B0002817390714F40F5F1F4F6BDA8091E2066B
:1034C0009091E3069C01245F3A4FF901E052FE4FD0
:1034D00043E0400F408333960083FC01E051F94FF5
:1034E0009701245F3A4F60E070E0601771070CF0BD
:1034F000CDC040E050E0D901A40FB51FAC91AA2384
:1035000089F0A08175016401042E04C0CC0CDD1C7F
:10351000EE1CFF1C0A94D2F7CFA2D8A6E9A6FAA601
:10352000AC2912C075016401042E04C0CC0CDD1C52
:10353000EE1CFF1C0A94D2F7CFA2D8A6E9A6FAA6E1
:10354000AC2DA095B081AB23A0834F5F5F4F483077
:10355000510589F66F5F7F4F3196285F3F4FC5CF8A
:103560008230910509F096C04091E2065091E30641
:10357000445F5A4FFA01ED51FE4F208130E0322F67
:103580002227319680817901E82A3196808190E066
:10359000982F882731962081822B9701280F391F79
:1035A0002536310554F082E890E09093C808809366
:1035B000C70882E08093E606CEC28C0197FF02C066
:1035C000095F1F4F53E0159507955A95E1F798014C
:1035D00063E0220F331F6A95E1F72817390714F4C7
:1035E0000F5F1F4FD6D98091E2069091E3069C01B0
:1035F000245F3A4FF901E052FE4F43E0400F408311
:1036000033960083FC01E051F94F9701245F3A4F54
:1036100060E070E060177107CCF540E050E0DA013F
:10362000AC59BF4FA20FB31FAC91AA2389F0A08160
:1036300075016401042E04C0CC0CDD1CEE1CFF1CC3
:103640000A94D2F7CFA2D8A6E9A6FAA6AC2912C04E
:1036500075016401042E04C0CC0CDD1CEE1CFF1CA3
:103660000A94D2F7CFA2D8A6E9A6FAA6AC2DA095C7
:10367000B081AB23A0834F5F5F4F4830510579F68F
:103680006F5F7F4F3196285F3F4FC4CFB801675FB0
:103690007F4F04C28330910509F062C08091E20639
:1036A0009091E306845F9A4FFC01ED51FE4F6080DC
:1036B000712C762C662431962081622A3196008105
:1036C00010E0102F002731968081082BC301800F56
:1036D000911F813491051CF083E890E066CF78015A
:1036E000EE0CFF1C56D98091E2069091E306AC01E6
:1036F000445F5A4FFA01E052FE4F23E02E0D208323
:103700003396E082660C771C60E070E093012A5BE0
:103710003E4F4E5F5F4F6017710784F4FA01E81B5C
:10372000F90BE20FF31FA081B181FA01EE51FE4FB8
:10373000B0833196A0836F5F7F4FEBCFB701675F98
:103740007F4F8951994F0DD94091DE065091DF0688
:1037500021E030E0473E93E059070CF4AFC1ACC123
:103760008430910509F062C08091E2069091E306F1
:10377000845F9A4FFC01ED51FE4F6080712C762CD6
:10378000662431962081622A3196008110E0102F44
:10379000002731968081082BC301800F911F81344F
:1037A00091051CF084E890E000CF7801EE0CFF1C3E
:1037B000F0D88091E2069091E306AC01445F5A4F45
:1037C000FA01E052FE4F23E02E0D20833396E08273
:1037D000660C771C60E070E093012A533F4F4E5F08
:1037E0005F4F6017710784F4FA01E81BF90BE20FD1
:1037F000F31FA081B181FA01EE51FE4FB0833196E3
:10380000A0836F5F7F4FEBCFB701675F7F4F895119
:10381000994FA7D84091DE065091DF0621E030E0B5
:10382000473EA3E05A070CF449C146C185309105D3
:10383000D1F48091E2069091E3069C01245F3A4F17
:10384000F901ED51FE4FE081F0E0FE2FEE27D901A6
:10385000AC51BE4F4C91E42BE536F1050CF488CD0C
:1038600085E890E0A2CE8630910509F042C08091B3
:10387000E2069091E3069C01245F3A4FF901ED5175
:10388000FE4FE081F0E0FE2FEE27D901AC51BE4F94
:103890004C91E42BE134F1051CF086E890E085CEF4
:1038A000EE0FFF1FEC5AF94FD901AB51BE4F4C91AF
:1038B00050E0542F442711966C91462B518340833E
:1038C000F901E052FE4F06E0C02EC0826CE070E0CD
:1038D0008951994F46D84091DE065091DF0621E08C
:1038E00030E0473E83E058070CF468CD20E030E03C
:1038F00065CD8F30910509F07EC0E091E206F09130
:10390000E306E45FFA4FDF01AD51BE4F2C9130E08A
:10391000322F222711968C917901E82A11968C91E9
:1039200090E0982F8827EA51FE4F2081822B970143
:10393000280F391F253631051CF08FE890E035CE71
:103940008C0197FF02C0095F1F4F53E01595079543
:103950005A95E1F7980163E0220F331F6A95E1F76A
:103960002817390714F40F5F1F4F13D88091E20610
:103970009091E306FC01E451F94FA6E0A083970182
:10398000245F3A4F60E070E06017710714F5FB01A7
:10399000E80FF91FEC50F94FE081F0E040E050E013
:1039A0007901E40EF51E6F01042E02C0D594C79470
:1039B0000A94E2F7BC2DB170DB2ED701DC924F5F89
:1039C0005F4F4830510561F76F5F7F4F285F3F4F72
:1039D000DBCF6CE070E08951994F0E94B1144091A7
:1039E000DE065091DF0621E030E0473EB3E05B07A2
:1039F0000CF464C061C0409709F0F0CCE091E2069D
:103A0000F091E306E45FFA4FDF01AD51BE4FEC9059
:103A1000F12CFE2CEE2411968C91E82A11960C9133
:103A200010E0102F0027EA51FE4F8081082BC701BC
:103A3000800F911F813491051CF080E990E0B5CD95
:103A40000E94C9148091E2069091E306FC01E451C2
:103A5000F94FB6E0CB2EC082FC01EB50F94FEE0CD3
:103A6000FF1C60E070E09701215A3109601771076F
:103A70009CF4DF0111974C9150E0542F4427A08112
:103A80004A2BDF01A81BB90BA20FB31F4D935C9308
:103A90006F5F7F4F3296EACF6CE070E08951994FAB
:103AA0000E94B1144091DE065091DF0621E030E023
:103AB000473E83E0580714F020E030E0429FC00109
:103AC000439F900D529F900D112401969093DF0615
:103AD0008093DE061092C8081092C7080E94A514B1
:103AE0007DCC2091E2063091E306C9010696F901EA
:103AF000E451F94F2081820F911D9093E30680934A
:103B0000E206AC014B5F5F4F2091E0063091E10689
:103B1000421753073CF4FC01E251F94F808190E0D9
:103B200005D888CC1092D5061092C8081092C70804
:103B30004091E4065091E50667E877E0CE010E96E5
:103B40000E942F021092E5061092E4061092E306FE
:103B50001092E2066FCC60910C0511E0612787E1BD
:103B60000E94B20960910D05612789E10E94B209A6
:103B700060910E0561278BE10E94B20960910F05EB
:103B800061278DE10E94B2098BE8E82EFF24F394AF
:103B9000C7010197F1F76091100561278FE10E943D
:103BA000B20960911105612781E20E94B20960911A
:103BB0001205612783E20E94B20960911305612713
:103BC00085E20E94B209C7010197F1F786E10E94E0
:103BD0008A0921E0892B09F020E02093770588E10C
:103BE0000E948A0921E0892B09F020E020937605C4
:103BF0008AE10E948A0921E0892B09F020E02093C4
:103C000075058CE10E948A0921E0892B09F020E0EA
:103C1000209374058BE891E00197F1F78EE10E9403
:103C20008A0921E0892B09F020E02093730580E2C6
:103C30000E948A0921E0892B09F020E02093720577
:103C400082E20E948A0921E0892B09F020E020937A
:103C5000710584E20E948A0921E0892B09F020E0A5
:103C6000209370050BE811E0C8010197F1F781E09E
:103C70000E94A2130E940F0D6093440370934503AA
:103C800080934603909347031AD120E030E04AE73F
:103C900052E45BD2C2D27093D5056093D405C801BB
:103CA0000197F1F782E00E94A2130E940F0D60932A
:103CB00048037093490380934A0390934B03FFD0CA
:103CC00020E030E04AE752E440D2A7D27093D70513
:103CD0006093D605C8010197F1F783E00E94A21313
:103CE0000E940F0D60934C0370934D0380934E031D
:103CF00090934F03E4D020E030E04AE752E425D22D
:103D00008CD27093D9056093D805C8010197F1F75B
:103D100084E00E94A2130E940F0D609350037093E1
:103D200051038093520390935303C9D020E030E0B5
:103D30004AE752E40AD271D27093DB056093DA0548
:103D4000C8010197F1F70E94140817C92FA138A5DF
:103D500049A55AA5261737074807590708F01BCA6F
:103D600022CAE9EDF8E080EA92E091838083128232
:103D7000138214821582E7E0F4E01382128248EE87
:103D800053E060E070E0448355836683778320E5E9
:103D900032E03183208325EC30E03587248724EC22
:103DA00030E03787268720EC30E0318B208B21EC08
:103DB00030E0338B228B22EC30E0358B248B26ECE9
:103DC00030E0378B268B118E128E138E148EE4EA20
:103DD000F4E01682178210861186128613861486E6
:103DE000158616861786108A118A128A138A148AF3
:103DF000158AEFEDF8E0918380831282138214829A
:103E00001582ECEEF4E01382128222E632E0318376
:103E1000208326EF31E035832483E5EEF8E09183BB
:103E200080831282138214821582EBEEF8E0918374
:103E300080831282138214821582E1EFF8E091836D
:103E400080831282138214821582E7EFF8E0918357
:103E500080831282138214821582E2EFF4E0918350
:103E600080831282138214821582EAEFF4E0918338
:103E700080831282138214821582EDEFF8E0918321
:103E800080831282138214821582E0E0F5E01382AF
:103E90001282448355836683778320E732E031833F
:103EA0002083E2EDF8E091838083128213821482F2
:103EB000158288E68093C9080895E89409C097FBA5
:103EC0003EF490958095709561957F4F8F4F9F4FF1
:103ED0009923A9F0F92F96E9BB279395F695879535
:103EE00077956795B795F111F8CFFAF4BB0F11F4F8
:103EF00060FF1BC06F5F7F4F8F4F9F4F16C088239F
:103F000011F096E911C0772321F09EE8872F762FD4
:103F100005C0662371F096E8862F70E060E02AF015
:103F20009A95660F771F881FDAF7880F9695879501
:103F300097F908950BD078C069D028F06ED018F0AA
:103F4000952309F05AC05FC01124A2C07ED0A0F30F
:103F5000959FD1F3950F50E0551F629FF001729F1E
:103F6000BB27F00DB11D639FAA27F00DB11DAA1F3D
:103F7000649F6627B00DA11D661F829F2227B00D8A
:103F8000A11D621F739FB00DA11D621F839FA00D15
:103F9000611D221F749F3327A00D611D231F849F65
:103FA000600D211D822F762F6A2F11249F575040BC
:103FB0008AF0E1F088234AF0EE0FFF1FBB1F661F57
:103FC000771F881F91505040A9F79E3F510570F010
:103FD00014C05EC05F3FECF3983EDCF386957795A6
:103FE0006795B795F795E7959F5FC1F7FE2B880F0B
:103FF000911D9695879597F9089597F99F6780E8A1
:1040000070E060E008959FEF80EC089500240A942A
:104010001616170618060906089500240A941216A3
:104020001306140605060895092E0394000C11F4D6
:10403000882352F0BB0F40F4BF2B11F460FF04C083
:104040006F5F7F4F8F4F9F4F089557FD9058440FDC
:10405000551F59F05F3F71F04795880F97FB991FE7
:1040600061F09F3F79F087950895121613061406A4
:10407000551FF2CF4695F1DF08C016161706180631
:10408000991FF1CF86957105610508940895E8940C
:10409000BB2766277727CB0197F90895A1E21A2E4F
:1040A000AA1BBB1BFD010DC0AA1FBB1FEE1FFF1FDC
:1040B000A217B307E407F50720F0A21BB30BE40B2C
:1040C000F50B661F771F881F991F1A9469F7609573
:1040D0007095809590959B01AC01BD01CF0108952D
:1040E000052E97FB16F400940FD057FD05D0D6DFB0
:1040F00007FC02D046F408C05095409530952195B4
:104100003F4F4F4F5F4F0895909580957095619503
:104110007F4F8F4F9F4F089509D0A59F900DB49F5B
:10412000900DA49F800D911D11240895A29FB001B0
:10413000B39FC001A39F700D811D1124911DB29FDB
:10414000700D811D1124911D08950CD06DCF65DF78
:1041500040F05CDF30F021F45F3F19F04ECF511199
:1041600097CF51CF72DF98F39923C9F35523B1F359
:10417000951B550BBB27AA2762177307840738F0D6
:104180009F5F5F4F220F331F441FAA1FA9F333D035
:104190000E2E3AF0E0E830D091505040E695001CE9
:1041A000CAF729D0FE2F27D0660F771F881FBB1FA5
:1041B000261737074807AB07B0E809F0BB0B802D7F
:1041C000BF01FF2793585F4F2AF09E3F510568F0CB
:1041D00014CF5ECF5F3FECF3983EDCF38695779586
:1041E0006795B795F7959F5FC9F7880F911D9695CD
:1041F000879597F90895E1E0660F771F881FBB1F29
:10420000621773078407BA0720F0621B730B840BD5
:10421000BA0BEE1F88F7E095089504D06894B111A9
:1042200037CF08951ADF88F09F5790F0B92F99275C
:10423000B751A0F0D1F0660F771F881F991F1AF0B1
:10424000BA95C9F712C0B13081F021DFB1E008950D
:104250001ECF672F782F8827B85F39F0B93FCCF38E
:10426000869577956795B395D9F73EF490958095A7
:10427000709561957F4F8F4F9F4F0895EE0FFF1FF1
:10428000881F8BBF0790F691E02D199481E090E094
:08429000F89400C0F894FFCF80
:1042980000C090A2DA0051060000000011091109BF
:1042A8002802110911091109110911091109110926
:1042B8001109110911090000000047012F02280205
:1042C8008810791160113B11A002A3055D114C12F1
:1042D800291280106901670175105D010000000056
:1042E800AD0777134607F3077707550769070000F7
:1042F80000005F10081328022702C0110000000008
:10430800F901CA0128029E01C201AE019F01000005
:104318000000110977132802270211091109110950
:10432800000000001109771328022702000000008E
:10433800C70800000000110901005E00000000002D
:10434800000011091109280211091109110911099F
:1043580011095D1011091109110911091109110932
:1043680011091109110900000000440EBE0F2802AE
:10437800430E3E103F0F090F1011980EFC105A0EF5
:104388008910F30F670F210F561046104210564D33
:104398004450565F317C315F564D4450560D0A00EB
:1043A800564D4450455F003A323A007C005F564D06
:1043B80044504500204643204E6F7420537570705A
:0C43C8006F727465643A2046433D0000AB
:020000023000CC
:10E000000D9489F10D94B2F10D94B2F10D94B2F129
:10E010000D94B2F10D94B2F10D94B2F10D94B2F1F0
:10E020000D94B2F10D94B2F10D94B2F10D94B2F1E0
:10E030000D94B2F10D94B2F10D94B2F10D94B2F1D0
:10E040000D94B2F10D94B2F10D94B2F10D94B2F1C0
:10E050000D94B2F10D94B2F10D94B2F10D94B2F1B0
:10E060000D94B2F10D94B2F10D94B2F10D94B2F1A0
:10E070000D94B2F10D94B2F10D94B2F10D94B2F190
:10E080000D94B2F10D94B2F10D94B2F10D94B2F180
:10E090000D94B2F10D94B2F10D94B2F10D94B2F170
:10E0A0000D94B2F10D94B2F10D94B2F10D94B2F160
:10E0B0000D94B2F10D94B2F10D94B2F10D94B2F150
:10E0C0000D94B2F10D94B2F10D94B2F10D94B2F140
:10E0D0000D94B2F10D94B2F10D94B2F10D94B2F130
:10E0E0000D94B2F141546D656761323536300041AF
:10E0F000726475696E6F206578706C6F72657220DE
:10E1000073746B3530305632206279204D4C530099
:10E11000426F6F746C6F616465723E004875683F52
:10E1200000436F6D70696C6564206F6E203D200048
:10E130004350552054797065202020203D20005FF9
:10E140005F4156525F415243485F5F3D2000415658
:10E1500052204C696243205665723D20004743437C
:10E160002056657273696F6E203D20004350552024
:10E1700049442020202020203D20004C6F7720663D
:10E18000757365202020203D20004869676820665F
:10E190007573652020203D200045787420667573D6
:10E1A00065202020203D20004C6F636B2066757336
:10E1B000652020203D20004D617220203720323024
:10E1C000313300312E362E3800342E332E350056A2
:10E1D00023202020414444522020206F7020636F70
:10E1E00064652020202020696E73747275637469E1
:10E1F0006F6E2061646472202020496E74657272B3
:10E20000757074006E6F20766563746F7200726A49
:10E210006D702020006A6D70200057686174207056
:10E220006F72743A00506F7274206E6F7420737541
:10E2300070706F72746564004D7573742062652030
:10E2400061206C6574746572002000577269747483
:10E25000696E672045450052656164696E672045B7
:10E26000450045452065727220636E743D00504F35
:10E27000525400303D5A65726F2061646472003FF1
:10E280003D43505520737461747300403D454550C3
:10E29000524F4D207465737400423D426C696E6B41
:10E2A000204C454400453D44756D70204545505215
:10E2B0004F4D00463D44756D7020464C415348001B
:10E2C000483D48656C70004C3D4C69737420492F83
:10E2D0004F20506F72747300513D51756974005234
:10E2E0003D44756D702052414D00563D73686F7707
:10E2F00020696E7465727275707420566563746FF0
:10E30000727300593D506F727420626C696E6B00BD
:10E310002A0011241FBECFEFD1E2DEBFCDBF01E046
:10E320000CBF12E0A0E0B2E0EEE1FDEF03E00BBFB6
:10E3300002C007900D92A030B107D9F712E0A0E01B
:10E34000B2E001C01D92AE30B107E1F70F9460F367
:10E350000D948DFE01E20EBF0FEF0DBF11241FBE05
:10E360000D9460F30D9400F020E030E040ED57E0B4
:10E3700005C0FA013197F1F72F5F3F4F2817390792
:10E38000C0F308959C01260F311DC901A0E0B0E043
:10E390002F5F3F4FABBFFC018791882361F08093D3
:10E3A000C6008091C00086FFFCCF8091C0008064D1
:10E3B0008093C000EACF08958DE08093C6008091DD
:10E3C000C00086FFFCCF8091C00080648093C000B5
:10E3D0008AE08093C6008091C00086FFFCCF8091C8
:10E3E000C00080648093C00008950F94C2F10F9420
:10E3F000DCF10895FC019081992359F09093C600B7
:10E400008091C00086FFFCCF8091C0008064809323
:10E41000C0003196992379F70895282F982F929567
:10E420009F70892F805D8A3308F0895F8093C600D2
:10E430008091C00086FFFCCF8091C00080648093F3
:10E44000C000822F8F70982F905D9A3308F0995FEB
:10E450009093C6008091C00086FFFCCF8091C000E1
:10E4600080648093C00008959C01FB01853691056E
:10E470001CF46330710594F0C90164E670E00F94F8
:10E480002EFE605D7F4F6093C6008091C00086FFC6
:10E49000FCCF8091C00080648093C0002B30310598
:10E4A00014F43297B4F0C90164E670E00F942EFEC4
:10E4B0006AE070E00F942EFE605D7F4F6093C600AF
:10E4C0008091C00086FFFCCF8091C0008064809363
:10E4D000C000C9016AE070E00F942EFEC0968093E0
:10E4E000C6008091C00086FFFCCF8091C000806490
:10E4F0008093C00008951F93182F8EE692EE60E07F
:10E500000F94C2F11093C6008091C00086FFFCCF2B
:10E510008091C00080648093C0000F94DCF11F9153
:10E5200008952F923F924F925F926F927F928F92B7
:10E530009F92AF92BF92CF92DF92EF92FF920F9392
:10E540001F93DF93CF93CDB7DEB762970FB6F894E2
:10E55000DEBF0FBECDBF382E622ECA01DB015C01CB
:10E560006D01772420E2222E2E010894411C511CBB
:10E570008BC081E0A81680E0B80681E0C80680E084
:10E58000D80628F0C601AA27BB270F940DF2BB2797
:10E59000AD2D9C2D8B2D0F940DF28A2D0F940DF225
:10E5A0002092C6008091C00086FFFCCF8091C00001
:10E5B00080648093C0009DE29093C6008091C0006B
:10E5C00086FFFCCF8091C00080648093C0002092C1
:10E5D000C6008091C00086FFFCCF8091C00080649F
:10E5E0008093C00019828601750188249924A1E0D6
:10E5F0003A1651F03A1620F0B2E03B1661F409C029
:10E600000BBFF701779007C0C7010F9477FE782EF4
:10E6100002C0F7017080872D0F940DF22092C60082
:10E620008091C00086FFFCCF8091C0008064809301
:10E63000C000872D8052F401EF70F0708F3520F408
:10E64000E40DF51D708204C0E40DF51D8EE280839B
:10E650000894E11CF11C011D111D0894811C911CE2
:10E6600090E18916910409F0C2CF80E190E0A0E02A
:10E67000B0E0A80EB91ECA1EDB1E198AC2010F9493
:10E68000FAF10F94DCF16A94662009F072CF629679
:10E690000FB6F894DEBF0FBECDBFCF91DF911F91B3
:10E6A0000F91FF90EF90DF90CF90BF90AF909F9031
:10E6B0008F907F906F905F904F903F902F90089534
:10E6C0002F923F924F925F926F927F928F929F9282
:10E6D000AF92BF92CF92DF92EF92FF920F931F9370
:10E6E000DF93CF93CDB7DEB7CD53D1400FB6F894BB
:10E6F000DEBF0FBECDBF01E20EBF0FEF0DBF94B75F
:10E70000F894A89514BE80916000886180936000A1
:10E7100010926000789493FF05C0E0910002F091A0
:10E7200001021995279A2F9A8091C00082608093E8
:10E73000C00080E18093C40088E18093C1000000A4
:10E74000EE24FF24870144E0A42EB12CCC24DD2448
:10E7500024C0C5010197F1F70894E11CF11C011DCB
:10E76000111D21E2E2162EE4F20620E0020720E06D
:10E77000120718F031E0C32ED12CC801B70127ECE5
:10E780003BE140E050E00F9441FE611571058105C9
:10E79000910519F485B1805885B98091C00087FD35
:10E7A00003C0C114D104A9F2A6014F5F5F4FC25E3E
:10E7B000DE4F59834883CE51D140C25EDE4F8881FF
:10E7C0009981CE51D140019711F00D9410FEC05D9A
:10E7D000DE4F19821882C053D14060E0C15DDE4F28
:10E7E0001882CF52D14088249924C35DDE4F19820C
:10E7F0001882CD52D140C05EDE4F188219821A8233
:10E800001B82C052D140CE5CDE4F188219821A8220
:10E810001B82C253D140EE24FF2487010BBFF701B6
:10E8200007911691C45CDE4F19830883CC53D14005
:10E830000D940BFEC25EDE4F28813981CE51D1404E
:10E840002130310509F52091C600C25EDE4F1982E4
:10E850001882CE51D14022C02F5F3F4F4F4F5F4FA4
:10E86000213082E138078AE7480780E0580780F0C6
:10E87000C45CDE4FE881F981CC53D140EF5FFF4F9C
:10E8800019F0EE27FF27099420E030E040E050E047
:10E890008091C00087FFE0CF2091C600C35DDE4FAE
:10E8A00048815981CD52D1404F5F5F4FC35DDE4FEC
:10E8B00059834883CD52D140213209F063C64A3092
:10E8C000510508F05FC60894811C911C53E0851621
:10E8D000910409F059C600E010E018C081E280936D
:10E8E000C6008091C00086FFFCCF8091C00080648C
:10E8F0008093C0002F5F3F4F2931310579F70F9486
:10E90000DCF10F5F1F4F0530110519F020E030E0FA
:10E91000E5CF10920A0210920B0210920C02109294
:10E920000D02109206021092070210920802109235
:10E930000902109202021092030210920402109235
:10E9400005028FEE90EE60E00F94F5F180E191EE1C
:10E9500060E00F94C2F18091C00087FFFCCF9091DE
:10E96000C600903608F09F759032B8F09093C600BC
:10E970008091C00086FFFCCF8091C00080648093AE
:10E98000C000A0E2A093C6008091C00086FFFCCF2B
:10E990008091C00080648093C000983409F4D7C18E
:10E9A0009934B8F4923409F459C1933458F490333B
:10E9B00019F1903308F4E3C59F33A1F1903409F0C5
:10E9C000DEC5BDC0953409F470C1963409F0D7C5D1
:10E9D00098C1923509F42BC2933538F49C3409F46C
:10E9E000F5C1913509F0CBC518C2963509F445C279
:10E9F000993509F0C4C567C483E792EE62E00F94CD
:10EA0000F5F110920602109207021092080210927D
:10EA1000090210920A0210920B0210920C0210923C
:10EA20000D0213C18FE792EE62E00F94F5F18FEEC5
:10EA300090EE60E00F94F5F181E291EE60E00F94CA
:10EA4000C2F187EB91EE60E00F94F5F180E391EE77
:10EA500060E00F94C2F184EE90EE60E00F94F5F167
:10EA60008FE391EE60E00F94C2F186E090E061E008
:10EA700070E00F9434F20F94DCF18DE591EE60E0DC
:10EA80000F94C2F189EC91EE60E00F94F5F18EE401
:10EA900091EE60E00F94C2F183EC91EE60E00F9490
:10EAA000F5F18CE691EE60E00F94C2F18EE10F94E7
:10EAB0000DF288E90F940DF281E00F940DF20F949E
:10EAC000DCF18BE791EE60E00F94C2F119E0E0E039
:10EAD000F0E010935700E4918E2F0F940DF20F94F5
:10EAE000DCF18AE891EE60E00F94C2F1E3E0F0E03F
:10EAF00010935700E4918E2F0F940DF20F94DCF1D8
:10EB000089E991EE60E00F94C2F1E2E0F0E0109349
:10EB10005700E4918E2F0F940DF20F94DCF188EAE8
:10EB200091EE60E00F94C2F1E1E0F0E01093570045
:10EB30001491812F0F940DF20F94DCF107CF8BE825
:10EB400092EE62E00F94F5F18BE492EE60E00F94A8
:10EB5000F5F10F94DCF100E010E019C0C8016F2D51
:10EB60000F947FFEFF2031F489E492EE60E00F9471
:10EB7000C2F10BC0F092C6008091C00086FFFCCFAE
:10EB80008091C00080648093C0000F5F1F4FC80158
:10EB900081519F41A0E0B0E0ABBFFC01F790BAE229
:10EBA000FB1621F0E2E000301E07C1F60F94DCF105
:10EBB0000F94DCF187E592EE60E00F94F5F10F948D
:10EBC000DCF1CC24DD2400E010E01EC0C8010F946D
:10EBD00077FEF82E882331F489E492EE60E00F94FA
:10EBE000C2F10BC08093C6008091C00086FFFCCFAD
:10EBF0008091C00080648093C000FE1419F00894D6
:10EC0000C11CD11C0F5F1F4FC80181519F41A0E063
:10EC1000B0E0ABBFFC01E790FAE2EF1621F022E092
:10EC20000030120799F60F94DCF10F94DCF182E6C4
:10EC300092EE60E00F94C2F1C60161E070E00F94C3
:10EC400034F20F94DCF10F94DCF110920202109276
:10EC50000302109204021092050278CE89E992EE26
:10EC600062E00F94F5F1279A2F9A16C02F9880E052
:10EC700090E0E0EDF7E03197F1F7019684369105E9
:10EC8000C1F72F9A80E090E0E0EDF7E03197F1F7DF
:10EC9000019684369105C1F78091C00087FFE6CFC9
:10ECA0008091C00087FFFCCF64C485EA92EE62E0E9
:10ECB0000F94F5F140910202509103026091040219
:10ECC0007091050281E020E10F9491F2809102029F
:10ECD00090910302A0910402B091050280509F4FD1
:10ECE000AF4FBF4F8093020290930302A0930402A0
:10ECF000B093050280509041A040B04008F426CE69
:10ED0000A4CF83EB92EE62E00F94F5F140910602FE
:10ED100050910702609108027091090280E020E1A1
:10ED20000F9491F28091060290910702A09108023F
:10ED3000B091090280509F4FAF4FBF4F80930602A2
:10ED400090930702A0930802B0930902FFCD80ECD4
:10ED500092EE62E00F94F5F183E792EE60E00F949B
:10ED6000F5F18FE792EE60E00F94F5F18BE892EE0B
:10ED700060E00F94F5F189E992EE60E00F94F5F10F
:10ED800085EA92EE60E00F94F5F183EB92EE60E09D
:10ED90000F94F5F180EC92EE60E00F94F5F187ECC2
:10EDA00092EE60E00F94F5F188ED92EE60E00F9442
:10EDB000F5F18FED92EE60E00F94F5F18AEE92EEB0
:10EDC00060E00F94F5F183E093EEBDCD87EC92EE19
:10EDD00062E00F94F5F181E40F947BF282E40F94EA
:10EDE0007BF283E40F947BF284E40F947BF285E45E
:10EDF0000F947BF286E40F947BF287E40F947BF20E
:10EE000088E40F947BF28AE40F947BF28BE40F94F6
:10EE10007BF28CE40F947BF299CD88ED92EE62E068
:10EE20000F94F5F1772473948824992409C48FED05
:10EE300092EE62E00F94F5F140910A0250910B02BC
:10EE400060910C0270910D0282E020E10F9491F22A
:10EE500080910A0290910B02A0910C02B0910D02D8
:10EE600080509F4FAF4FBF4F80930A0290930B0289
:10EE7000A0930C02B0930D0269CD8AEE92EE62E08F
:10EE80000F94F5F184EE90EE60E00F94F5F18FECC5
:10EE900091EE60E00F94F5F1662477244301CC5D98
:10EEA000DE4F19821882C452D140D401C301B695F5
:10EEB000A79597958795CA5DDE4F88839983AA8326
:10EEC000BB83C652D140CC5DDE4FA881B981C4520C
:10EED000D1401196CC5DDE4FB983A883C452D14096
:10EEE000CD0162E070E00F9434F2B0E2B093C6005E
:10EEF0008091C00086FFFCCF8091C0008064809329
:10EF0000C000EDE2E093C6008091C00086FFFCCF18
:10EF10008091C00080648093C000F0E2F093C6004E
:10EF20008091C00086FFFCCF8091C00080648093F8
:10EF3000C000CA5DDE4FE880F9800A811B81C6529D
:10EF4000D140BB27A12F902F8F2D0F940DF2CA5DBA
:10EF5000DE4F8881C652D1400F940DF2B0E2FB2EF5
:10EF6000F092C6008091C00086FFFCCF8091C00067
:10EF700080648093C0000DE30093C6008091C000C0
:10EF800086FFFCCF8091C00080648093C00010E2B7
:10EF90001093C6008091C00086FFFCCF8091C00016
:10EFA00080648093C0008BBEF3012791C65DDE4F65
:10EFB0002883CA52D140A22EBB24CC24DD2408943D
:10EFC000611C711C811C911C8BBEF3018791282E42
:10EFD0003324442455240894611C711C811C911C09
:10EFE0008BBEF3013791C55DDE4F3883CB52D140E4
:10EFF0000894611C711C811C911C8BBEF30147910C
:10F00000C45DDE4F4883CC52D140ADEFEA2EAFEF66
:10F01000FA2EAFEF0A2FAFEF1A2F6E0C7F1C801E57
:10F02000911E142D032DF22CEE24EA0CFB1C0C1D5A
:10F030001D1D0F940DF220E22093C6008091C000A8
:10F0400086FFFCCF8091C00080648093C000C65DC5
:10F05000DE4F8881CA52D1400F940DF230E23093D6
:10F06000C6008091C00086FFFCCF8091C000806404
:10F070008093C000C45DDE4F8881CC52D1400F9494
:10F080000DF240E24093C6008091C00086FFFCCFA5
:10F090008091C00080648093C000C55DDE4F888190
:10F0A000CB52D1400F940DF250E25093C6008091A4
:10F0B000C00086FFFCCF8091C00080648093C000B8
:10F0C0008FEFE8168FEFF80680E0080780E018075A
:10F0D00031F484E092EE60E00F94C2F1DFC0D80119
:10F0E000C7018070907CA070B0708050904CA040A0
:10F0F000B040D1F52FEF3FE340E050E0E222F322B1
:10F1000004231523CA5DDE4FA880B980CA80DB8046
:10F11000C652D140AE0CBF1CC01ED11EAA0CBB1CD7
:10F12000CC1CDD1C8EE092EE60E00F94C2F1BB2798
:10F13000A12F902F8F2D0F940DF28E2D0F940DF285
:10F1400030E23093C6008091C00086FFFCCF8091F2
:10F15000C00080648093C0004EE34093C60080915D
:10F16000C00086FFFCCF87C08EE09EEFA0E0B0E03D
:10F17000E822F9220A231B239CE0E91694E9F90608
:10F1800090E0090790E0190709F088C0C45DDE4FE0
:10F19000A881CC52D140EA2EFF2400E010E0102FCD
:10F1A0000F2DFE2CEE24C55DDE4FB881CB52D14031
:10F1B000EB0EF11C011D111DD601C501817090706F
:10F1C000A070B070DC0199278827E80EF91E0A1F8D
:10F1D0001B1F20EF30E040E050E0A222B322C42207
:10F1E000D52241E1AA0CBB1CCC1CDD1C4A95D1F7F1
:10F1F000EA0CFB1C0C1D1D1D81E090E0A0E0B0E0BE
:10F20000282239224A225B2235E1220C331C441C7D
:10F21000551C3A95D1F7E20CF31C041D151D57013E
:10F220006801AA0CBB1CCC1CDD1C85E192EE60E0E1
:10F230000F94C2F1C801AA27BB270F940DF2BB2778
:10F24000A12F902F8F2D0F940DF28E2D0F940DF274
:10F2500090E29093C6008091C00086FFFCCF809121
:10F26000C00080648093C000AEE3A093C60080918C
:10F27000C00086FFFCCF8091C00080648093C000F6
:10F28000C601AA27BB270F940DF2BB27AD2D9C2DDD
:10F290008B2D0F940DF28A2D0F940DF20F94DCF14B
:10F2A000CC5DDE4FE881F981C452D140F99709F471
:10F2B0004DCBF4E0EF2EF12C012D112D6E0C7F1CA7
:10F2C000801E911EF2CD83E093EE62E00F94F5F183
:10F2D0008AE192EE60E00F94C2F18091C00087FF56
:10F2E000FCCF1091C6001F751093C6008091C0001E
:10F2F00086FFFCCF8091C00080648093C0000F9493
:10F30000DCF1812F81548A3108F036C1163409F4BA
:10F3100095C0173490F4133409F44EC0143430F40B
:10F320001134F1F0123409F01DC130C0143409F465
:10F3300059C0153409F016C16BC01A3409F4C4C0A1
:10F340001B3438F4173409F48FC0183409F00AC19B
:10F35000A1C01B3409F4D2C01C3409F003C1E8C0B9
:10F360008FEF81B90DC082B1809582B980E090E0C5
:10F37000E0EDF7E03197F1F70196883C9105C1F790
:10F380008091C00087FFEFCF12B8EFC08FEF84B934
:10F390000DC085B1809585B980E090E0E0EDF7E0A3
:10F3A0003197F1F70196883C9105C1F78091C00033
:10F3B00087FFEFCF15B8D9C08FEF87B90DC088B1DF
:10F3C000809588B980E090E0E0EDF7E03197F1F7C3
:10F3D0000196883C9105C1F78091C00087FFEFCF6F
:10F3E00018B8C3C08FEF8AB90DC08BB180958BB9A7
:10F3F00080E090E0E0EDF7E03197F1F70196883C8E
:10F400009105C1F78091C00087FFEFCF1BB8ADC059
:10F410008FEF8DB90DC08EB180958EB980E090E0F0
:10F42000E0EDF7E03197F1F70196883C9105C1F7DF
:10F430008091C00087FFEFCF1EB897C08FEF80BBD1
:10F440000DC081B3809581BB80E090E0E0EDF7E0F6
:10F450003197F1F70196883C9105C1F78091C00082
:10F4600087FFEFCF11BA81C08FEF83BB0DC084B38C
:10F47000809584BB80E090E0E0EDF7E03197F1F714
:10F480000196883C9105C1F78091C00087FFEFCFBE
:10F4900014BA6BC08FEF809301010FC080910201FD
:10F4A00080958093020180E090E0E0EDF7E03197F5
:10F4B000F1F70196883C9105C1F78091C00087FF64
:10F4C000EDCF1092020151C08FEF809304010FC065
:10F4D0008091050180958093050180E090E0E0ED4A
:10F4E000F7E03197F1F70196883C9105C1F78091DB
:10F4F000C00087FFEDCF1092050137C08FEF8093DA
:10F5000007010FC08091080180958093080180E079
:10F5100090E0E0EDF7E03197F1F70196883C910536
:10F52000C1F78091C00087FFEDCF109208011DC088
:10F530008FEF80930A010FC080910B01809580931B
:10F540000B0180E090E0E0EDF7E03197F1F70196F4
:10F55000883C9105C1F78091C00087FFEDCF1092E4
:10F560000B0103C085E292EEEEC98091C00087FFD7
:10F57000FCCF8091C600EAC988E392EEE4C98CE131
:10F5800091EEE1C988249924933011F1943028F444
:10F59000913089F09230B8F408C0953061F195301F
:10F5A000F0F0963009F048C043C02B3109F042C951
:10F5B00091E06BE13FC96227C15DDE4F2883CF52E6
:10F5C000D14092E037C9B22FA0E0622793E032C960
:10F5D000822F90E0A82BB92B622794E02BC92E3004
:10F5E00009F039C3622795E0C05DDE4F19821882A9
:10F5F000C053D1401FC9E1E0F0E0EC0FFD1FC05D3A
:10F60000DE4F08811981C053D140E00FF11F2083E4
:10F610000F5F1F4FC05DDE4F19830883C053D14079
:10F6200062270A171B0709F005C9D80196E002C92D
:10F63000261709F010C303C0973009F0FBC87724E0
:10F640009981933109F412C19431C8F4963009F4C8
:10F65000D8C0973050F4923009F406C1933009F4C1
:10F660006DC0913009F059C253C0913109F477C08F
:10F67000923108F0BBC0903109F04FC2F5C098310B
:10F6800009F487C0993150F4953109F4EFC09531F0
:10F6900008F4C6C1963109F040C2C2C19A3109F4DA
:10F6A0006CC09A3108F491C09B3109F45BC09D3164
:10F6B00009F033C29D81903359F48F81882311F46E
:10F6C0009EE11CC0813011F091E018C098E916C08D
:10F6D000892F807591F0903539F4E0E0F0E089E011
:10F6E0008093570094910AC0983539F4E3E0F0E034
:10F6F00089E080935700949101C090E01A821B82A8
